{
  "contractName": "ContentSale",
  "abi": [
    {
      "constant": true,
      "inputs": [],
      "name": "GetOwner",
      "outputs": [
        {
          "name": "",
          "type": "address"
        }
      ],
      "payable": false,
      "stateMutability": "view",
      "type": "function"
    },
    {
      "constant": true,
      "inputs": [
        {
          "name": "contentId",
          "type": "uint256"
        }
      ],
      "name": "GetContentInfoAll",
      "outputs": [
        {
          "name": "_id",
          "type": "uint256"
        },
        {
          "name": "_name",
          "type": "string"
        },
        {
          "name": "_description",
          "type": "string"
        },
        {
          "name": "_price",
          "type": "uint256"
        },
        {
          "name": "_numberOfBuyers",
          "type": "uint256"
        }
      ],
      "payable": false,
      "stateMutability": "view",
      "type": "function"
    },
    {
      "constant": false,
      "inputs": [
        {
          "name": "name",
          "type": "string"
        },
        {
          "name": "description",
          "type": "string"
        },
        {
          "name": "price",
          "type": "uint256"
        }
      ],
      "name": "AddContent",
      "outputs": [],
      "payable": false,
      "stateMutability": "nonpayable",
      "type": "function"
    },
    {
      "constant": false,
      "inputs": [],
      "name": "kill",
      "outputs": [],
      "payable": false,
      "stateMutability": "nonpayable",
      "type": "function"
    },
    {
      "constant": true,
      "inputs": [
        {
          "name": "contentId",
          "type": "uint256"
        }
      ],
      "name": "GetContent",
      "outputs": [
        {
          "name": "_id",
          "type": "uint256"
        },
        {
          "name": "_name",
          "type": "string"
        },
        {
          "name": "_price",
          "type": "uint256"
        },
        {
          "name": "_numberOfBuyers",
          "type": "uint256"
        },
        {
          "name": "_status",
          "type": "uint8"
        }
      ],
      "payable": false,
      "stateMutability": "view",
      "type": "function"
    },
    {
      "constant": false,
      "inputs": [
        {
          "name": "contentId",
          "type": "uint256"
        }
      ],
      "name": "BuyContent",
      "outputs": [],
      "payable": true,
      "stateMutability": "payable",
      "type": "function"
    },
    {
      "constant": true,
      "inputs": [
        {
          "name": "contentId",
          "type": "uint256"
        }
      ],
      "name": "GetNumberOfBuyers",
      "outputs": [
        {
          "name": "",
          "type": "uint256"
        }
      ],
      "payable": false,
      "stateMutability": "view",
      "type": "function"
    },
    {
      "constant": false,
      "inputs": [
        {
          "name": "newOwner",
          "type": "address"
        }
      ],
      "name": "TransferOwnership",
      "outputs": [],
      "payable": false,
      "stateMutability": "nonpayable",
      "type": "function"
    },
    {
      "constant": true,
      "inputs": [
        {
          "name": "contentId",
          "type": "uint256"
        }
      ],
      "name": "GetBuyers",
      "outputs": [
        {
          "name": "",
          "type": "address[]"
        }
      ],
      "payable": false,
      "stateMutability": "view",
      "type": "function"
    },
    {
      "constant": true,
      "inputs": [],
      "name": "GetNumberOfContents",
      "outputs": [
        {
          "name": "",
          "type": "uint256"
        }
      ],
      "payable": false,
      "stateMutability": "view",
      "type": "function"
    },
    {
      "constant": true,
      "inputs": [],
      "name": "GetContentIds",
      "outputs": [
        {
          "name": "",
          "type": "uint256[]"
        }
      ],
      "payable": false,
      "stateMutability": "view",
      "type": "function"
    },
    {
      "inputs": [],
      "payable": false,
      "stateMutability": "nonpayable",
      "type": "constructor"
    },
    {
      "anonymous": false,
      "inputs": [
        {
          "indexed": true,
          "name": "_id",
          "type": "uint256"
        },
        {
          "indexed": false,
          "name": "_buyer",
          "type": "address"
        },
        {
          "indexed": false,
          "name": "_name",
          "type": "string"
        },
        {
          "indexed": false,
          "name": "_price",
          "type": "uint256"
        }
      ],
      "name": "LogBuyContent",
      "type": "event"
    },
    {
      "anonymous": false,
      "inputs": [
        {
          "indexed": true,
          "name": "_id",
          "type": "uint256"
        },
        {
          "indexed": false,
          "name": "_name",
          "type": "string"
        },
        {
          "indexed": false,
          "name": "_price",
          "type": "uint256"
        }
      ],
      "name": "LogAddContent",
      "type": "event"
    }
  ],
  "bytecode": "0x6060604052341561000f57600080fd5b336000806101000a81548173ffffffffffffffffffffffffffffffffffffffff021916908373ffffffffffffffffffffffffffffffffffffffff160217905550336000806101000a81548173ffffffffffffffffffffffffffffffffffffffff021916908373ffffffffffffffffffffffffffffffffffffffff1602179055506113058061009e6000396000f3006060604052600436106100af576000357c0100000000000000000000000000000000000000000000000000000000900463ffffffff1680630ae50a39146100b4578063277ed5a314610109578063314eb8911461022657806341c0e1b5146102cf57806365f6690d146102e45780639a022990146103aa578063a2b5b2e4146103c2578063cfaaa266146103f9578063dcb717f414610432578063e1a07f54146104aa578063f4301fa6146104d3575b600080fd5b34156100bf57600080fd5b6100c761053d565b604051808273ffffffffffffffffffffffffffffffffffffffff1673ffffffffffffffffffffffffffffffffffffffff16815260200191505060405180910390f35b341561011457600080fd5b61012a6004808035906020019091905050610566565b604051808681526020018060200180602001858152602001848152602001838103835287818151815260200191508051906020019080838360005b83811015610180578082015181840152602081019050610165565b50505050905090810190601f1680156101ad5780820380516001836020036101000a031916815260200191505b50838103825286818151815260200191508051906020019080838360005b838110156101e65780820151818401526020810190506101cb565b50505050905090810190601f1680156102135780820380516001836020036101000a031916815260200191505b5097505050505050505060405180910390f35b341561023157600080fd5b6102cd600480803590602001908201803590602001908080601f0160208091040260200160405190810160405280939291908181526020018383808284378201915050505050509190803590602001908201803590602001908080601f016020809104026020016040519081016040528093929190818152602001838380828437820191505050505050919080359060200190919050506107ca565b005b34156102da57600080fd5b6102e26109c0565b005b34156102ef57600080fd5b6103056004808035906020019091905050610a55565b604051808681526020018060200185815260200184815260200183600281111561032b57fe5b60ff168152602001828103825286818151815260200191508051906020019080838360005b8381101561036b578082015181840152602081019050610350565b50505050905090810190601f1680156103985780820380516001836020036101000a031916815260200191505b50965050505050505060405180910390f35b6103c06004808035906020019091905050610b62565b005b34156103cd57600080fd5b6103e36004808035906020019091905050610e29565b6040518082815260200191505060405180910390f35b341561040457600080fd5b610430600480803573ffffffffffffffffffffffffffffffffffffffff16906020019091905050610e4c565b005b341561043d57600080fd5b6104536004808035906020019091905050610eea565b6040518080602001828103825283818151815260200191508051906020019060200280838360005b8381101561049657808201518184015260208101905061047b565b505050509050019250505060405180910390f35b34156104b557600080fd5b6104bd610f9a565b6040518082815260200191505060405180910390f35b34156104de57600080fd5b6104e6610fa4565b6040518080602001828103825283818151815260200191508051906020019060200280838360005b8381101561052957808201518184015260208101905061050e565b505050509050019250505060405180910390f35b60008060009054906101000a900473ffffffffffffffffffffffffffffffffffffffff16905090565b60006105706110ff565b6105786110ff565b600080600086600080600060025411151561059257600080fd5b6000831180156105a457506002548311155b15156105af57600080fd5b600160008481526020019081526020016000209150600082600001541115156105d757600080fd5b6105e08361103f565b905060011515811515148061064157506000809054906101000a900473ffffffffffffffffffffffffffffffffffffffff1673ffffffffffffffffffffffffffffffffffffffff163373ffffffffffffffffffffffffffffffffffffffff16145b151561064c57600080fd5b600160008b815260200190815260200160002093508360000154846001018560020186600301548760050180549050838054600181600116156101000203166002900480601f0160208091040260200160405190810160405280929190818152602001828054600181600116156101000203166002900480156107105780601f106106e557610100808354040283529160200191610710565b820191906000526020600020905b8154815290600101906020018083116106f357829003601f168201915b50505050509350828054600181600116156101000203166002900480601f0160208091040260200160405190810160405280929190818152602001828054600181600116156101000203166002900480156107ac5780601f10610781576101008083540402835291602001916107ac565b820191906000526020600020905b81548152906001019060200180831161078f57829003601f168201915b50505050509250985098509850985098505050505091939590929450565b6000809054906101000a900473ffffffffffffffffffffffffffffffffffffffff1673ffffffffffffffffffffffffffffffffffffffff163373ffffffffffffffffffffffffffffffffffffffff1614151561082557600080fd5b60026000815480929190600101919050555060c06040519081016040528060025481526020018481526020018381526020018281526020016000815260200160006040518059106108735750595b90808252806020026020018201604052508152506001600060025481526020019081526020016000206000820151816000015560208201518160010190805190602001906108c2929190611113565b5060408201518160020190805190602001906108df929190611113565b50606082015181600301556080820151816004015560a0820151816005019080519060200190610910929190611193565b509050506002547fcf40b7151c4e4459825d27cc2d6da947378eace2874cfd9b9ff28a21e5514d5784836040518080602001838152602001828103825284818151815260200191508051906020019080838360005b83811015610980578082015181840152602081019050610965565b50505050905090810190601f1680156109ad5780820380516001836020036101000a031916815260200191505b50935050505060405180910390a2505050565b6000809054906101000a900473ffffffffffffffffffffffffffffffffffffffff1673ffffffffffffffffffffffffffffffffffffffff163373ffffffffffffffffffffffffffffffffffffffff16141515610a1b57600080fd5b6000809054906101000a900473ffffffffffffffffffffffffffffffffffffffff1673ffffffffffffffffffffffffffffffffffffffff16ff5b6000610a5f6110ff565b600080600080600080600160008a81526020019081526020016000209250610a868961103f565b915081610a94576000610a97565b60015b90508260000154836001018460030154856005018054905084838054600181600116156101000203166002900480601f016020809104026020016040519081016040528092919081815260200182805460018160011615610100020316600290048015610b455780601f10610b1a57610100808354040283529160200191610b45565b820191906000526020600020905b815481529060010190602001808311610b2857829003601f168201915b505050505093509750975097509750975050505091939590929450565b6000816000806000600254111515610b7957600080fd5b600083118015610b8b57506002548311155b1515610b9657600080fd5b6000809054906101000a900473ffffffffffffffffffffffffffffffffffffffff1673ffffffffffffffffffffffffffffffffffffffff163373ffffffffffffffffffffffffffffffffffffffff1614151515610bf257600080fd5b60016000848152602001908152602001600020915060008260000154111515610c1a57600080fd5b816003015434141515610c2c57600080fd5b610c358361103f565b905060001515811515141515610c4a57600080fd5b600160008681526020019081526020016000209350836005018054806001018281610c75919061121d565b9160005260206000209001600033909190916101000a81548173ffffffffffffffffffffffffffffffffffffffff021916908373ffffffffffffffffffffffffffffffffffffffff160217905550506000809054906101000a900473ffffffffffffffffffffffffffffffffffffffff1673ffffffffffffffffffffffffffffffffffffffff166108fc349081150290604051600060405180830381858888f193505050501515610d2557600080fd5b847ff20740eac345c0e5864f9070e94443f12fbc1e1eaa8b0b0840154bddc3c95bba33866001018760030154604051808473ffffffffffffffffffffffffffffffffffffffff1673ffffffffffffffffffffffffffffffffffffffff16815260200180602001838152602001828103825284818154600181600116156101000203166002900481526020019150805460018160011615610100020316600290048015610e125780601f10610de757610100808354040283529160200191610e12565b820191906000526020600020905b815481529060010190602001808311610df557829003601f168201915b505094505050505060405180910390a25050505050565b600060016000838152602001908152602001600020600501805490509050919050565b6000809054906101000a900473ffffffffffffffffffffffffffffffffffffffff1673ffffffffffffffffffffffffffffffffffffffff163373ffffffffffffffffffffffffffffffffffffffff16141515610ea757600080fd5b806000806101000a81548173ffffffffffffffffffffffffffffffffffffffff021916908373ffffffffffffffffffffffffffffffffffffffff16021790555050565b610ef2611249565b600060016000848152602001908152602001600020905080600501805480602002602001604051908101604052809291908181526020018280548015610f8d57602002820191906000526020600020905b8160009054906101000a900473ffffffffffffffffffffffffffffffffffffffff1673ffffffffffffffffffffffffffffffffffffffff1681526020019060010190808311610f43575b5050505050915050919050565b6000600254905090565b610fac61125d565b610fb461125d565b600080600254604051805910610fc75750595b9080825280602002602001820160405250925060009150600190505b60025481111515611036576001600082815260200190815260200160002060000154838381518110151561101357fe5b906020019060200201818152505081806001019250508080600101915050610fe3565b82935050505090565b60008060008060009250600160008681526020019081526020016000209150600090505b81600501805490508110156110f4573373ffffffffffffffffffffffffffffffffffffffff16826005018281548110151561109a57fe5b906000526020600020900160009054906101000a900473ffffffffffffffffffffffffffffffffffffffff1673ffffffffffffffffffffffffffffffffffffffff1614156110e757600192505b8080600101915050611063565b829350505050919050565b602060405190810160405280600081525090565b828054600181600116156101000203166002900490600052602060002090601f016020900481019282601f1061115457805160ff1916838001178555611182565b82800160010185558215611182579182015b82811115611181578251825591602001919060010190611166565b5b50905061118f9190611271565b5090565b82805482825590600052602060002090810192821561120c579160200282015b8281111561120b5782518260006101000a81548173ffffffffffffffffffffffffffffffffffffffff021916908373ffffffffffffffffffffffffffffffffffffffff160217905550916020019190600101906111b3565b5b5090506112199190611296565b5090565b815481835581811511611244578183600052602060002091820191016112439190611271565b5b505050565b602060405190810160405280600081525090565b602060405190810160405280600081525090565b61129391905b8082111561128f576000816000905550600101611277565b5090565b90565b6112d691905b808211156112d257600081816101000a81549073ffffffffffffffffffffffffffffffffffffffff02191690555060010161129c565b5090565b905600a165627a7a72305820441b142bbd4ef3f92367b9a821aa4c7575a220333e63df1c28888986305a47300029",
  "source": "//*********************** Content Sale Contract ***********************//\r\n// version of compiler\r\npragma solidity ^0.4.18;\r\n\r\nimport \"./Ownable.sol\";\r\n\r\ncontract ContentSale is Ownable {\r\n    //********* Custom Types *********//\r\n    struct Content {\r\n      uint id;\r\n      string name;\r\n      string description;\r\n      uint256 price;\r\n      uint numberOfBuyers;\r\n      address[] buyers;\r\n    }\r\n\r\n    struct ContentBuyer {\r\n      uint contentId;\r\n      address buyer;\r\n    }\r\n\r\n    enum Status {\r\n      AVAILABLE,\r\n      ALREADY_BOUGHT,\r\n      OWNER\r\n    }\r\n    /*struct ContentView {\r\n    uint id;\r\n    string name;\r\n    uint256 price;\r\n    }*/\r\n\r\n    //********* State variables *********//\r\n    mapping (uint => Content) private contents;\r\n    uint contentCounter;\r\n\r\n    //mapping (uint => ContentView) public contentViews;\r\n\r\n    //mapping (uint => address) public buyers;\r\n    //uint buyerCounter;\r\n\r\n    //********* Constructor *********//\r\n    function ContentSale() public {\r\n        owner = msg.sender;\r\n    }\r\n\r\n    //********* Modifiers *********//\r\n    modifier CanAccesContent(uint contentId) {\r\n        // check whether there is a content for sale\r\n        require(contentCounter > 0);\r\n\r\n        // check that the content exists, by looking into the range of content ids of the mapping\r\n        require(contentId > 0 && contentId <= contentCounter);\r\n\r\n        Content storage content = contents[contentId];\r\n\r\n        // check if the content exists\r\n        require(content.id > 0);\r\n\r\n        // if the account is in the buyers list or account is owner then can access the content\r\n        bool isBuyer = IsContentBuyer(contentId);\r\n        require(isBuyer == true || msg.sender == owner);\r\n\r\n        _;\r\n    }\r\n\r\n    modifier CanBuyContent(uint contentId) {\r\n        // check whether there is a content for sale\r\n        require(contentCounter > 0);\r\n\r\n        // check that the content exists, by looking into the range of content ids of the mapping\r\n        require(contentId > 0 && contentId <= contentCounter);\r\n\r\n        // don't allow the owner to buy his own content\r\n        require(msg.sender != owner);\r\n\r\n        Content storage content = contents[contentId];\r\n\r\n        // check if the content exists\r\n        require(content.id > 0);\r\n\r\n        // check that the value sent is equal to the price of the content\r\n        require(msg.value == content.price);\r\n\r\n        // check whether the buyer has already bought the content by looking into buyers list of the content\r\n        bool isBuyer = IsContentBuyer(contentId);\r\n        require(isBuyer == false);\r\n        _;\r\n    }\r\n\r\n    modifier CanAddContent() {\r\n        // Content can only be added by a specific owner\r\n        require(msg.sender == owner);\r\n        _;\r\n    }\r\n\r\n    //********* Events *********//\r\n    event LogBuyContent (\r\n        uint indexed _id,\r\n        address _buyer,\r\n        string _name,\r\n        uint256 _price\r\n    );\r\n\r\n    event LogAddContent (\r\n        uint indexed _id,\r\n        string _name,\r\n        uint256 _price\r\n    );\r\n\r\n    //********* Functions *********//\r\n    function IsContentBuyer(uint contentId) private returns(bool) {\r\n      bool isBuyer = false;\r\n      Content content = contents[contentId];\r\n      for(uint i=0; i<content.buyers.length; i++)\r\n      {\r\n          if(content.buyers[i] == msg.sender){\r\n              isBuyer = true;\r\n          }\r\n      }\r\n      return isBuyer;\r\n    }\r\n\r\n    function AddContent(string name, string description, uint price) public CanAddContent {\r\n        contentCounter++;\r\n        // store this article\r\n        contents[contentCounter] = Content(\r\n          contentCounter,\r\n          name,\r\n          description,\r\n          price,\r\n          0,\r\n          new address[](0)\r\n        );\r\n\r\n        LogAddContent(contentCounter, name, price);\r\n    }\r\n\r\n    function BuyContent(uint contentId) payable public CanBuyContent(contentId) {\r\n        // retrieve the content\r\n        Content storage content = contents[contentId];\r\n\r\n        // keep buyer's information\r\n        content.buyers.push(msg.sender);\r\n\r\n        // the buyer can pay the owner now\r\n        owner.transfer(msg.value);\r\n\r\n        // trigger the event\r\n        LogBuyContent(contentId, msg.sender, content.name, content.price);\r\n    }\r\n\r\n    // fetch and return all content IDs for contents\r\n    function GetContentIds() public view returns (uint[]) {\r\n\r\n        uint[] memory contentIds = new uint[](contentCounter);\r\n\r\n        uint numberOfContents = 0;\r\n        // iterate over articles\r\n        for(uint i = 1; i <= contentCounter;  i++) {\r\n            contentIds[numberOfContents] = contents[i].id;\r\n            numberOfContents++;\r\n        }\r\n\r\n        return contentIds;\r\n    }\r\n\r\n    // fetch the buyers in the contract\r\n    function GetBuyers(uint contentId) public view returns (address[]) {\r\n      Content content = contents[contentId];\r\n      return content.buyers;\r\n    }\r\n\r\n    // fetch the number of contents in the contract\r\n    function GetNumberOfContents() public view returns (uint) {\r\n        return contentCounter;\r\n    }\r\n\r\n    // fetch the number of buyers in the contract\r\n    function GetNumberOfBuyers(uint contentId) public view returns (uint) {\r\n        return contents[contentId].buyers.length;\r\n    }\r\n\r\n    //********* Deactivate the Contract *********//\r\n    function kill() public onlyOwner {\r\n      selfdestruct(owner);\r\n    }\r\n\r\n    function GetContent(uint contentId) public view returns(uint _id, string _name, uint _price, uint _numberOfBuyers, Status _status)\r\n    {\r\n        // check there is contents in list\r\n        // require(contentId > 0);\r\n\r\n        // check that the id coming is in b/w the range of content ids which are added in the list\r\n        // require(contentId > 0 && contentId <= contentCounter);\r\n\r\n        Content content = contents[contentId];\r\n\r\n        // check if the content exists\r\n        // require(content.id > 0);\r\n        bool isBuyer = IsContentBuyer(contentId);\r\n\r\n        Status status = isBuyer ? Status.ALREADY_BOUGHT : Status.AVAILABLE;\r\n\r\n        return (content.id, content.name, content.price, content.buyers.length, status);\r\n    }\r\n\r\n    //This function as a bug, it does not return array of user defined type\r\n    /*function GetContents() public view returns(ContentView[])\r\n    {\r\n        require(contentCounter > 0);\r\n\r\n        ContentView[] memory contentViews = new ContentView[](contentCounter);\r\n\r\n        uint numberOfContents = 0;\r\n        // iterate over articles\r\n        for(uint i = 1; i <= contentCounter;  i++) {\r\n            contentViews[numberOfContents].id = contents[i].id;\r\n            contentViews[numberOfContents].name = contents[i].name;\r\n            contentViews[numberOfContents].price = contents[i].price;\r\n            numberOfContents++;\r\n        }\r\n\r\n        return contentViews;\r\n    }*/\r\n\r\n    function GetContentInfoAll(uint contentId) public view CanAccesContent(contentId) returns(uint _id, string _name, string _description, uint _price, uint _numberOfBuyers)\r\n    {\r\n        Content content = contents[contentId];\r\n        return (content.id, content.name, content.description, content.price, content.buyers.length);\r\n    }\r\n\r\n    function GetOwner() public view returns(address) {\r\n      return owner;\r\n    }\r\n}\r\n",
  "sourcePath": "D:\\work\\rnd\\blockchain\\contentsale\\contracts\\ContentSale.sol",
  "compiler": {
    "name": "solc",
    "version": "0.4.18+commit.9cf6e910.Emscripten.clang"
  },
  "schemaVersion": "1.0.1",
  "updatedAt": "2018-05-24T05:45:25.171Z"
}